{
    "abi": [
        {
            "type": "constructor",
            "inputs": [],
            "stateMutability": "nonpayable"
        },
        {
            "type": "function",
            "name": "addLPFromToken",
            "inputs": [
                {
                    "name": "tokenIn",
                    "type": "address",
                    "internalType": "address"
                },
                {
                    "name": "amountIn",
                    "type": "uint256",
                    "internalType": "uint256"
                },
                {
                    "name": "addParams",
                    "type": "tuple",
                    "internalType": "struct LPAggreator.AddLPParams",
                    "components": [
                        {
                            "name": "tokenA",
                            "type": "address",
                            "internalType": "address"
                        },
                        {
                            "name": "tokenB",
                            "type": "address",
                            "internalType": "address"
                        },
                        {
                            "name": "amountADesired",
                            "type": "uint256",
                            "internalType": "uint256"
                        },
                        {
                            "name": "amountBDesired",
                            "type": "uint256",
                            "internalType": "uint256"
                        },
                        {
                            "name": "amountAMin",
                            "type": "uint256",
                            "internalType": "uint256"
                        },
                        {
                            "name": "amountBMin",
                            "type": "uint256",
                            "internalType": "uint256"
                        },
                        {
                            "name": "to",
                            "type": "address",
                            "internalType": "address"
                        },
                        {
                            "name": "deadline",
                            "type": "uint256",
                            "internalType": "uint256"
                        }
                    ]
                }
            ],
            "outputs": [
                {
                    "name": "amountA",
                    "type": "uint256",
                    "internalType": "uint256"
                },
                {
                    "name": "amountB",
                    "type": "uint256",
                    "internalType": "uint256"
                },
                {
                    "name": "liquidity",
                    "type": "uint256",
                    "internalType": "uint256"
                }
            ],
            "stateMutability": "nonpayable"
        },
        {
            "type": "function",
            "name": "routers02",
            "inputs": [
                {
                    "name": "",
                    "type": "address",
                    "internalType": "address"
                }
            ],
            "outputs": [
                {
                    "name": "",
                    "type": "address",
                    "internalType": "contract IUniswapV2Router02"
                }
            ],
            "stateMutability": "view"
        },
        {
            "type": "function",
            "name": "swapLP",
            "inputs": [
                {
                    "name": "removeParams",
                    "type": "tuple",
                    "internalType": "struct LPAggreator.RemoveLPParams",
                    "components": [
                        {
                            "name": "tokenA",
                            "type": "address",
                            "internalType": "address"
                        },
                        {
                            "name": "tokenB",
                            "type": "address",
                            "internalType": "address"
                        },
                        {
                            "name": "liquidity",
                            "type": "uint256",
                            "internalType": "uint256"
                        },
                        {
                            "name": "amountAMin",
                            "type": "uint256",
                            "internalType": "uint256"
                        },
                        {
                            "name": "amountBMin",
                            "type": "uint256",
                            "internalType": "uint256"
                        },
                        {
                            "name": "to",
                            "type": "address",
                            "internalType": "address"
                        },
                        {
                            "name": "deadline",
                            "type": "uint256",
                            "internalType": "uint256"
                        }
                    ]
                },
                {
                    "name": "addParams",
                    "type": "tuple",
                    "internalType": "struct LPAggreator.AddLPParams",
                    "components": [
                        {
                            "name": "tokenA",
                            "type": "address",
                            "internalType": "address"
                        },
                        {
                            "name": "tokenB",
                            "type": "address",
                            "internalType": "address"
                        },
                        {
                            "name": "amountADesired",
                            "type": "uint256",
                            "internalType": "uint256"
                        },
                        {
                            "name": "amountBDesired",
                            "type": "uint256",
                            "internalType": "uint256"
                        },
                        {
                            "name": "amountAMin",
                            "type": "uint256",
                            "internalType": "uint256"
                        },
                        {
                            "name": "amountBMin",
                            "type": "uint256",
                            "internalType": "uint256"
                        },
                        {
                            "name": "to",
                            "type": "address",
                            "internalType": "address"
                        },
                        {
                            "name": "deadline",
                            "type": "uint256",
                            "internalType": "uint256"
                        }
                    ]
                }
            ],
            "outputs": [
                {
                    "name": "amountA",
                    "type": "uint256",
                    "internalType": "uint256"
                },
                {
                    "name": "amountB",
                    "type": "uint256",
                    "internalType": "uint256"
                },
                {
                    "name": "liquidity",
                    "type": "uint256",
                    "internalType": "uint256"
                }
            ],
            "stateMutability": "nonpayable"
        }
    ],
    "bytecode": {
        "object": "0x608060405234801561001057600080fd5b5073873789aaf553fd0b4252d0d2b72c6331c47aff2e60008181526020527f80dd19fda5e57740e733ce4dcba7fed9a5ce81b041887180795d736406e1ba2780546001600160a01b031916909117905561198d8061006f6000396000f3fe608060405234801561001057600080fd5b50600436106100415760003560e01c80631f23a8a814610046578063d43af74a1461006f578063dce1be3014610091575b600080fd5b61005961005436600461134f565b6100a4565b6040516100669190611682565b60405180910390f35b61008261007d36600461147e565b6100bf565b60405161006693929190611856565b61008261009f366004611387565b610235565b6000602081905290815260409020546001600160a01b031681565b60008060008060006100d0876103ab565b9150915060006100ea838960000151848b60200151610559565b9050600080610110600284048a600001516002868161010557fe5b048c602001516108a9565b915091506101816040518061010001604052808b600001516001600160a01b031681526020018b602001516001600160a01b031681526020018481526020018381526020018b6080015181526020018b60a001518152602001306001600160a01b0316815260200142815250610bf4565b8b5160208d015160405163e6a4390560e01b8152949c50929a509098506000927336b83e0d41d1dd9c73a006f0c1cbc1f096e69e349263e6a43905926101cc929091906004016115a2565b60206040518083038186803b1580156101e457600080fd5b505afa1580156101f8573d6000803e3d6000fd5b505050506040513d601f19601f8201168201806040525081019061021c919061136b565b90506102288188610dfa565b5050505050509250925092565b600080806102546001600160a01b03871633308863ffffffff610e1816565b60006102608688610e76565b90506000806102866002840488600001516002868161027b57fe5b048a602001516108a9565b915091506102f760405180610100016040528089600001516001600160a01b0316815260200189602001516001600160a01b03168152602001848152602001838152602001896080015181526020018960a001518152602001306001600160a01b0316815260200142815250610bf4565b895160208b015160405163e6a4390560e01b8152949a509298509096506000927336b83e0d41d1dd9c73a006f0c1cbc1f096e69e349263e6a4390592610342929091906004016115a2565b60206040518083038186803b15801561035a57600080fd5b505afa15801561036e573d6000803e3d6000fd5b505050506040513d601f19601f82011682018060405250810190610392919061136b565b905061039e8186610dfa565b5050505093509350939050565b8051602082015160405163e6a4390560e01b8152600092839283927336b83e0d41d1dd9c73a006f0c1cbc1f096e69e349263e6a43905926103ee926004016115a2565b60206040518083038186803b15801561040657600080fd5b505afa15801561041a573d6000803e3d6000fd5b505050506040513d601f19601f8201168201806040525081019061043e919061136b565b905061046433308660400151846001600160a01b0316610e18909392919063ffffffff16565b6040840151610493906001600160a01b038316906000805160206119188339815191529063ffffffff61102116565b600080516020611918833981519152600090815260208181526000805160206118f8833981519152548651918701516040808901519051635d5155ef60e11b81526001600160a01b039093169463baa2abde946104fd9490939291908190309042906004016115e0565b6040805180830381600087803b15801561051657600080fd5b505af115801561052a573d6000803e3d6000fd5b505050506040513d601f19601f8201168201806040525081019061054e9190611536565b909590945092505050565b60006001600160a01b03841660008051602061193883398151915214156105815750836106fe565b84156106fe576105af6001600160a01b0385166000805160206119188339815191528763ffffffff61102116565b604080516002808252606080830184529260208301908036833701905050905084816000815181106105dd57fe5b60200260200101906001600160a01b031690816001600160a01b0316815250506000805160206119388339815191528160018151811061061957fe5b6001600160a01b039283166020918202929092018101919091526000805160206119188339815191526000908152908190526000805160206118f8833981519152546040516338ed173960e01b815260609391909116916338ed17399161068a918b918790309042906004016117e6565b600060405180830381600087803b1580156106a457600080fd5b505af11580156106b8573d6000803e3d6000fd5b505050506040513d6000823e601f3d908101601f191682016040526106e091908101906113c6565b9050806001815181106106ef57fe5b60200260200101518301925050505b6001600160a01b03821660008051602061193883398151915214156107245782016108a1565b82156108a1576107526001600160a01b0383166000805160206119188339815191528563ffffffff61102116565b6040805160028082526060808301845292602083019080368337019050509050828160008151811061078057fe5b60200260200101906001600160a01b031690816001600160a01b031681525050600080516020611938833981519152816001815181106107bc57fe5b6001600160a01b039283166020918202929092018101919091526000805160206119188339815191526000908152908190526000805160206118f8833981519152546040516338ed173960e01b815260609391909116916338ed17399161082d9189918790309042906004016117e6565b600060405180830381600087803b15801561084757600080fd5b505af115801561085b573d6000803e3d6000fd5b505050506040513d6000823e601f3d908101601f1916820160405261088391908101906113c6565b90508060018151811061089257fe5b60200260200101518301925050505b949350505050565b6000806001600160a01b03851660008051602061193883398151915214610a48576108f76000805160206119388339815191526000805160206119188339815191528863ffffffff61102116565b60408051600280825260608083018452926020830190803683370190505090506000805160206119388339815191528160008151811061093357fe5b60200260200101906001600160a01b031690816001600160a01b031681525050858160018151811061096157fe5b6001600160a01b039283166020918202929092018101919091526000805160206119188339815191526000908152908190526000805160206118f8833981519152546040516338ed173960e01b815260609391909116916338ed1739916109d2918c918790309042906004016117e6565b600060405180830381600087803b1580156109ec57600080fd5b505af1158015610a00573d6000803e3d6000fd5b505050506040513d6000823e601f3d908101601f19168201604052610a2891908101906113c6565b905080600181518110610a3757fe5b602002602001015193505050610a4c565b8591505b6001600160a01b03831660008051602061193883398151915214610be857610a976000805160206119388339815191526000805160206119188339815191528663ffffffff61102116565b604080516002808252606080830184529260208301908036833701905050905060008051602061193883398151915281600081518110610ad357fe5b60200260200101906001600160a01b031690816001600160a01b0316815250508381600181518110610b0157fe5b6001600160a01b039283166020918202929092018101919091526000805160206119188339815191526000908152908190526000805160206118f8833981519152546040516338ed173960e01b815260609391909116916338ed173991610b72918a918790309042906004016117e6565b600060405180830381600087803b158015610b8c57600080fd5b505af1158015610ba0573d6000803e3d6000fd5b505050506040513d6000823e601f3d908101601f19168201604052610bc891908101906113c6565b905080600181518110610bd757fe5b602002602001015192505050610beb565b50825b94509492505050565b6000806000610c2d600080516020611918833981519152856040015186600001516001600160a01b03166110219092919063ffffffff16565b610c61600080516020611918833981519152856060015186602001516001600160a01b03166110219092919063ffffffff16565b600080516020611918833981519152600090815260209081526000805160206118f883398151915254855191860151604080880151606089015160808a015160a08b015160c08c0151945162e8e33760e81b81526001600160a01b039097169763e8e3370097610cde979196919594939291904290600401611620565b606060405180830381600087803b158015610cf857600080fd5b505af1158015610d0c573d6000803e3d6000fd5b505050506040513d601f19601f82011682018060405250810190610d309190611559565b60408701519295509093509150831015610d6f578351610d6f906001600160a01b0316600080516020611918833981519152600063ffffffff61102116565b8360600151821015610da9576020840151610da9906001600160a01b0316600080516020611918833981519152600063ffffffff61102116565b6000610dcb848660400151038660000151858860600151038860200151610559565b90508015610df257610df2600080516020611938833981519152338363ffffffff6110f216565b509193909250565b610e146001600160a01b038316338363ffffffff6110f216565b5050565b610e70846323b872dd60e01b858585604051602401610e39939291906115bc565b60408051601f198184030181529190526020810180516001600160e01b03166001600160e01b031990931692909217909152611111565b50505050565b60006001600160a01b0382166000805160206119388339815191521415610e9e57508161101b565b821561101b57610ecc6001600160a01b0383166000805160206119188339815191528563ffffffff61102116565b60408051600280825260608083018452926020830190803683370190505090508281600081518110610efa57fe5b60200260200101906001600160a01b031690816001600160a01b03168152505060008051602061193883398151915281600181518110610f3657fe5b6001600160a01b039283166020918202929092018101919091526000805160206119188339815191526000908152908190526000805160206118f8833981519152546040516338ed173960e01b815260609391909116916338ed173991610fa79189918790309042906004016117e6565b600060405180830381600087803b158015610fc157600080fd5b505af1158015610fd5573d6000803e3d6000fd5b505050506040513d6000823e601f3d908101601f19168201604052610ffd91908101906113c6565b90508060018151811061100c57fe5b60200260200101518301925050505b92915050565b8015806110a95750604051636eb1769f60e11b81526001600160a01b0384169063dd62ed3e9061105790309086906004016115a2565b60206040518083038186803b15801561106f57600080fd5b505afa158015611083573d6000803e3d6000fd5b505050506040513d601f19601f820116820180604052508101906110a7919061151e565b155b6110ce5760405162461bcd60e51b81526004016110c590611790565b60405180910390fd5b6110ed8363095ea7b360e01b8484604051602401610e39929190611669565b505050565b6110ed8363a9059cbb60e01b8484604051602401610e39929190611669565b6060611166826040518060400160405280602081526020017f5361666545524332303a206c6f772d6c6576656c2063616c6c206661696c6564815250856001600160a01b03166111a09092919063ffffffff16565b8051909150156110ed5780806020019051810190611184919061145e565b6110ed5760405162461bcd60e51b81526004016110c590611746565b60606111af84846000856111b9565b90505b9392505050565b6060824710156111db5760405162461bcd60e51b81526004016110c5906116c9565b6111e48561127a565b6112005760405162461bcd60e51b81526004016110c59061170f565b60006060866001600160a01b0316858760405161121d9190611586565b60006040518083038185875af1925050503d806000811461125a576040519150601f19603f3d011682016040523d82523d6000602084013e61125f565b606091505b509150915061126f828286611280565b979650505050505050565b3b151590565b6060831561128f5750816111b2565b82511561129f5782518084602001fd5b8160405162461bcd60e51b81526004016110c59190611696565b803561101b816118df565b60006101008083850312156112d7578182fd5b6112e08161186c565b91505081356112ee816118df565b815260208201356112fe816118df565b8060208301525060408201356040820152606082013560608201526080820135608082015260a082013560a082015261133a8360c084016112b9565b60c082015260e082013560e082015292915050565b600060208284031215611360578081fd5b81356111b2816118df565b60006020828403121561137c578081fd5b81516111b2816118df565b6000806000610140848603121561139c578182fd5b83356113a7816118df565b9250602084013591506113bd85604086016112c4565b90509250925092565b600060208083850312156113d8578182fd5b825167ffffffffffffffff8111156113ee578283fd5b80840185601f8201126113ff578384fd5b8051915061141461140f83611893565b61186c565b8281528381019082850185850284018601891015611430578687fd5b8693505b84841015611452578051835260019390930192918501918501611434565b50979650505050505050565b60006020828403121561146f578081fd5b815180151581146111b2578182fd5b6000808284036101e0811215611492578283fd5b60e081121561149f578283fd5b506114aa60e061186c565b83356114b5816118df565b815260208401356114c5816118df565b806020830152506040840135604082015260608401356060820152608084013560808201526114f78560a086016112b9565b60a082015260c0848101359082015291506115158460e085016112c4565b90509250929050565b60006020828403121561152f578081fd5b5051919050565b60008060408385031215611548578182fd5b505080516020909101519092909150565b60008060006060848603121561156d578283fd5b8351925060208401519150604084015190509250925092565b600082516115988184602087016118b3565b9190910192915050565b6001600160a01b0392831681529116602082015260400190565b6001600160a01b039384168152919092166020820152604081019190915260600190565b6001600160a01b039788168152958716602087015260408601949094526060850192909252608084015290921660a082015260c081019190915260e00190565b6001600160a01b039889168152968816602088015260408701959095526060860193909352608085019190915260a084015290921660c082015260e08101919091526101000190565b6001600160a01b03929092168252602082015260400190565b6001600160a01b0391909116815260200190565b60006020825282518060208401526116b58160408501602087016118b3565b601f01601f19169190910160400192915050565b60208082526026908201527f416464726573733a20696e73756666696369656e742062616c616e636520666f6040820152651c8818d85b1b60d21b606082015260800190565b6020808252601d908201527f416464726573733a2063616c6c20746f206e6f6e2d636f6e7472616374000000604082015260600190565b6020808252602a908201527f5361666545524332303a204552433230206f7065726174696f6e20646964206e6040820152691bdd081cdd58d8d9595960b21b606082015260800190565b60208082526036908201527f5361666545524332303a20617070726f76652066726f6d206e6f6e2d7a65726f60408201527520746f206e6f6e2d7a65726f20616c6c6f77616e636560501b606082015260800190565b600060a082018783526020878185015260a0604085015281875180845260c0860191508289019350845b818110156118355784516001600160a01b031683529383019391830191600101611810565b50506001600160a01b03969096166060850152505050608001529392505050565b9283526020830191909152604082015260600190565b60405181810167ffffffffffffffff8111828210171561188b57600080fd5b604052919050565b600067ffffffffffffffff8211156118a9578081fd5b5060209081020190565b60005b838110156118ce5781810151838201526020016118b6565b83811115610e705750506000910152565b6001600160a01b03811681146118f457600080fd5b5056fe80dd19fda5e57740e733ce4dcba7fed9a5ce81b041887180795d736406e1ba27000000000000000000000000873789aaf553fd0b4252d0d2b72c6331c47aff2e0000000000000000000000002ed3dddae5b2f321af0806181fbfa6d049be47d8a2646970667358221220b5b050414578a2d3cf71b6e841a4916241b6dfd6eb065efbdf544a1cc9e899ad64736f6c63430006060033",
        "linkReferences": {}
    },
    "methodIdentifiers": {
        "addLPFromToken(address,uint256,(address,address,uint256,uint256,uint256,uint256,address,uint256))": "dce1be30",
        "routers02(address)": "1f23a8a8",
        "swapLP((address,address,uint256,uint256,uint256,address,uint256),(address,address,uint256,uint256,uint256,uint256,address,uint256))": "d43af74a"
    },
    "id": 27
}