{
    "abi": [
        {
            "type": "constructor",
            "inputs": [],
            "stateMutability": "nonpayable"
        },
        {
            "type": "function",
            "name": "routers02",
            "inputs": [
                {
                    "name": "",
                    "type": "address",
                    "internalType": "address"
                }
            ],
            "outputs": [
                {
                    "name": "",
                    "type": "address",
                    "internalType": "contract IUniswapV2Router02"
                }
            ],
            "stateMutability": "view"
        },
        {
            "type": "function",
            "name": "swapLP",
            "inputs": [
                {
                    "name": "removeParams",
                    "type": "tuple",
                    "internalType": "struct LPAggreator.RemoveLPParams",
                    "components": [
                        {
                            "name": "tokenA",
                            "type": "address",
                            "internalType": "address"
                        },
                        {
                            "name": "tokenB",
                            "type": "address",
                            "internalType": "address"
                        },
                        {
                            "name": "liquidity",
                            "type": "uint256",
                            "internalType": "uint256"
                        },
                        {
                            "name": "amountAMin",
                            "type": "uint256",
                            "internalType": "uint256"
                        },
                        {
                            "name": "amountBMin",
                            "type": "uint256",
                            "internalType": "uint256"
                        },
                        {
                            "name": "to",
                            "type": "address",
                            "internalType": "address"
                        },
                        {
                            "name": "deadline",
                            "type": "uint256",
                            "internalType": "uint256"
                        }
                    ]
                },
                {
                    "name": "addParams",
                    "type": "tuple",
                    "internalType": "struct LPAggreator.AddLPParams",
                    "components": [
                        {
                            "name": "tokenA",
                            "type": "address",
                            "internalType": "address"
                        },
                        {
                            "name": "tokenB",
                            "type": "address",
                            "internalType": "address"
                        },
                        {
                            "name": "amountADesired",
                            "type": "uint256",
                            "internalType": "uint256"
                        },
                        {
                            "name": "amountBDesired",
                            "type": "uint256",
                            "internalType": "uint256"
                        },
                        {
                            "name": "amountAMin",
                            "type": "uint256",
                            "internalType": "uint256"
                        },
                        {
                            "name": "amountBMin",
                            "type": "uint256",
                            "internalType": "uint256"
                        },
                        {
                            "name": "to",
                            "type": "address",
                            "internalType": "address"
                        },
                        {
                            "name": "deadline",
                            "type": "uint256",
                            "internalType": "uint256"
                        }
                    ]
                }
            ],
            "outputs": [
                {
                    "name": "amountA",
                    "type": "uint256",
                    "internalType": "uint256"
                },
                {
                    "name": "amountB",
                    "type": "uint256",
                    "internalType": "uint256"
                },
                {
                    "name": "liquidity",
                    "type": "uint256",
                    "internalType": "uint256"
                }
            ],
            "stateMutability": "nonpayable"
        }
    ],
    "bytecode": {
        "object": "0x608060405234801561001057600080fd5b5073873789aaf553fd0b4252d0d2b72c6331c47aff2e60008181526020527f80dd19fda5e57740e733ce4dcba7fed9a5ce81b041887180795d736406e1ba2780546001600160a01b031916909117905561162c8061006f6000396000f3fe608060405234801561001057600080fd5b50600436106100365760003560e01c80631f23a8a81461003b578063d43af74a14610064575b600080fd5b61004e61004936600461104d565b610086565b60405161005b9190611341565b60405180910390f35b61007761007236600461113d565b6100a1565b60405161005b93929190611515565b6000602081905290815260409020546001600160a01b031681565b60008060008060006100b287610217565b9150915060006100cc838960000151848b602001516103c5565b90506000806100f2600284048a60000151600286816100e757fe5b048c6020015161072d565b915091506101636040518061010001604052808b600001516001600160a01b031681526020018b602001516001600160a01b031681526020018481526020018381526020018b6080015181526020018b60a001518152602001306001600160a01b0316815260200142815250610a91565b8b5160208d015160405163e6a4390560e01b8152949c50929a509098506000927336b83e0d41d1dd9c73a006f0c1cbc1f096e69e349263e6a43905926101ae92909190600401611261565b60206040518083038186803b1580156101c657600080fd5b505afa1580156101da573d6000803e3d6000fd5b505050506040513d601f19601f820116820180604052508101906101fe9190611069565b905061020a8188610c9d565b5050505050509250925092565b8051602082015160405163e6a4390560e01b8152600092839283927336b83e0d41d1dd9c73a006f0c1cbc1f096e69e349263e6a439059261025a92600401611261565b60206040518083038186803b15801561027257600080fd5b505afa158015610286573d6000803e3d6000fd5b505050506040513d601f19601f820116820180604052508101906102aa9190611069565b90506102d033308660400151846001600160a01b0316610cbb909392919063ffffffff16565b60408401516102ff906001600160a01b038316906000805160206115d78339815191529063ffffffff610d1916565b6000805160206115d7833981519152600090815260208181526000805160206115b7833981519152548651918701516040808901519051635d5155ef60e11b81526001600160a01b039093169463baa2abde9461036994909392919081903090429060040161129f565b6040805180830381600087803b15801561038257600080fd5b505af1158015610396573d6000803e3d6000fd5b505050506040513d601f19601f820116820180604052508101906103ba91906111f5565b909590945092505050565b60006001600160a01b038416732ed3dddae5b2f321af0806181fbfa6d049be47d814156103f3575083610576565b8415610576576104216001600160a01b0385166000805160206115d78339815191528763ffffffff610d1916565b6040805160028082526060808301845292602083019080368337019050509050848160008151811061044f57fe5b60200260200101906001600160a01b031690816001600160a01b031681525050732ed3dddae5b2f321af0806181fbfa6d049be47d88160018151811061049157fe5b6001600160a01b039283166020918202929092018101919091526000805160206115d78339815191526000908152908190526000805160206115b7833981519152546040516338ed173960e01b815260609391909116916338ed173991610502918b918790309042906004016114a5565b600060405180830381600087803b15801561051c57600080fd5b505af1158015610530573d6000803e3d6000fd5b505050506040513d6000823e601f3d908101601f191682016040526105589190810190611085565b90508060018151811061056757fe5b60200260200101518301925050505b6001600160a01b038216732ed3dddae5b2f321af0806181fbfa6d049be47d814156105a2578201610725565b8215610725576105d06001600160a01b0383166000805160206115d78339815191528563ffffffff610d1916565b604080516002808252606080830184529260208301908036833701905050905082816000815181106105fe57fe5b60200260200101906001600160a01b031690816001600160a01b031681525050732ed3dddae5b2f321af0806181fbfa6d049be47d88160018151811061064057fe5b6001600160a01b039283166020918202929092018101919091526000805160206115d78339815191526000908152908190526000805160206115b7833981519152546040516338ed173960e01b815260609391909116916338ed1739916106b19189918790309042906004016114a5565b600060405180830381600087803b1580156106cb57600080fd5b505af11580156106df573d6000803e3d6000fd5b505050506040513d6000823e601f3d908101601f191682016040526107079190810190611085565b90508060018151811061071657fe5b60200260200101518301925050505b949350505050565b6000806001600160a01b038516732ed3dddae5b2f321af0806181fbfa6d049be47d8146108de57610787732ed3dddae5b2f321af0806181fbfa6d049be47d86000805160206115d78339815191528863ffffffff610d1916565b6040805160028082526060808301845292602083019080368337019050509050732ed3dddae5b2f321af0806181fbfa6d049be47d8816000815181106107c957fe5b60200260200101906001600160a01b031690816001600160a01b03168152505085816001815181106107f757fe5b6001600160a01b039283166020918202929092018101919091526000805160206115d78339815191526000908152908190526000805160206115b7833981519152546040516338ed173960e01b815260609391909116916338ed173991610868918c918790309042906004016114a5565b600060405180830381600087803b15801561088257600080fd5b505af1158015610896573d6000803e3d6000fd5b505050506040513d6000823e601f3d908101601f191682016040526108be9190810190611085565b9050806001815181106108cd57fe5b6020026020010151935050506108e2565b8591505b6001600160a01b038316732ed3dddae5b2f321af0806181fbfa6d049be47d814610a855761092e6001600160a01b0385166000805160206115d78339815191528663ffffffff610d1916565b6040805160028082526060808301845292602083019080368337019050509050732ed3dddae5b2f321af0806181fbfa6d049be47d88160008151811061097057fe5b60200260200101906001600160a01b031690816001600160a01b031681525050838160018151811061099e57fe5b6001600160a01b039283166020918202929092018101919091526000805160206115d78339815191526000908152908190526000805160206115b7833981519152546040516338ed173960e01b815260609391909116916338ed173991610a0f918a918790309042906004016114a5565b600060405180830381600087803b158015610a2957600080fd5b505af1158015610a3d573d6000803e3d6000fd5b505050506040513d6000823e601f3d908101601f19168201604052610a659190810190611085565b905080600181518110610a7457fe5b602002602001015192505050610a88565b50825b94509492505050565b6000806000610aca6000805160206115d7833981519152856040015186600001516001600160a01b0316610d199092919063ffffffff16565b610afe6000805160206115d7833981519152856060015186602001516001600160a01b0316610d199092919063ffffffff16565b6000805160206115d7833981519152600090815260209081526000805160206115b783398151915254855191860151604080880151606089015160808a015160a08b015160c08c0151945162e8e33760e81b81526001600160a01b039097169763e8e3370097610b7b9791969195949392919042906004016112df565b606060405180830381600087803b158015610b9557600080fd5b505af1158015610ba9573d6000803e3d6000fd5b505050506040513d601f19601f82011682018060405250810190610bcd9190611218565b60408701519295509093509150831015610c0c578351610c0c906001600160a01b03166000805160206115d7833981519152600063ffffffff610d1916565b8360600151821015610c46576020840151610c46906001600160a01b03166000805160206115d7833981519152600063ffffffff610d1916565b6000610c688486604001510386600001518588606001510388602001516103c5565b90508015610c9557610c95732ed3dddae5b2f321af0806181fbfa6d049be47d8338363ffffffff610dea16565b509193909250565b610cb76001600160a01b038316338363ffffffff610dea16565b5050565b610d13846323b872dd60e01b858585604051602401610cdc9392919061127b565b60408051601f198184030181529190526020810180516001600160e01b03166001600160e01b031990931692909217909152610e09565b50505050565b801580610da15750604051636eb1769f60e11b81526001600160a01b0384169063dd62ed3e90610d4f9030908690600401611261565b60206040518083038186803b158015610d6757600080fd5b505afa158015610d7b573d6000803e3d6000fd5b505050506040513d601f19601f82011682018060405250810190610d9f91906111dd565b155b610dc65760405162461bcd60e51b8152600401610dbd9061144f565b60405180910390fd5b610de58363095ea7b360e01b8484604051602401610cdc929190611328565b505050565b610de58363a9059cbb60e01b8484604051602401610cdc929190611328565b6060610e5e826040518060400160405280602081526020017f5361666545524332303a206c6f772d6c6576656c2063616c6c206661696c6564815250856001600160a01b0316610e989092919063ffffffff16565b805190915015610de55780806020019051810190610e7c919061111d565b610de55760405162461bcd60e51b8152600401610dbd90611405565b6060610ea78484600085610eb1565b90505b9392505050565b606082471015610ed35760405162461bcd60e51b8152600401610dbd90611388565b610edc85610f72565b610ef85760405162461bcd60e51b8152600401610dbd906113ce565b60006060866001600160a01b03168587604051610f159190611245565b60006040518083038185875af1925050503d8060008114610f52576040519150601f19603f3d011682016040523d82523d6000602084013e610f57565b606091505b5091509150610f67828286610f78565b979650505050505050565b3b151590565b60608315610f87575081610eaa565b825115610f975782518084602001fd5b8160405162461bcd60e51b8152600401610dbd9190611355565b8035610fbc8161159e565b92915050565b6000610100808385031215610fd5578182fd5b610fde8161152b565b9150508135610fec8161159e565b81526020820135610ffc8161159e565b8060208301525060408201356040820152606082013560608201526080820135608082015260a082013560a08201526110388360c08401610fb1565b60c082015260e082013560e082015292915050565b60006020828403121561105e578081fd5b8135610eaa8161159e565b60006020828403121561107a578081fd5b8151610eaa8161159e565b60006020808385031215611097578182fd5b825167ffffffffffffffff8111156110ad578283fd5b80840185601f8201126110be578384fd5b805191506110d36110ce83611552565b61152b565b82815283810190828501858502840186018910156110ef578687fd5b8693505b848410156111115780518352600193909301929185019185016110f3565b50979650505050505050565b60006020828403121561112e578081fd5b81518015158114610eaa578182fd5b6000808284036101e0811215611151578182fd5b60e081121561115e578182fd5b5061116960e061152b565b83356111748161159e565b815260208401356111848161159e565b806020830152506040840135604082015260608401356060820152608084013560808201526111b68560a08601610fb1565b60a082015260c0848101359082015291506111d48460e08501610fc2565b90509250929050565b6000602082840312156111ee578081fd5b5051919050565b60008060408385031215611207578182fd5b505080516020909101519092909150565b60008060006060848603121561122c578081fd5b8351925060208401519150604084015190509250925092565b60008251611257818460208701611572565b9190910192915050565b6001600160a01b0392831681529116602082015260400190565b6001600160a01b039384168152919092166020820152604081019190915260600190565b6001600160a01b039788168152958716602087015260408601949094526060850192909252608084015290921660a082015260c081019190915260e00190565b6001600160a01b039889168152968816602088015260408701959095526060860193909352608085019190915260a084015290921660c082015260e08101919091526101000190565b6001600160a01b03929092168252602082015260400190565b6001600160a01b0391909116815260200190565b6000602082528251806020840152611374816040850160208701611572565b601f01601f19169190910160400192915050565b60208082526026908201527f416464726573733a20696e73756666696369656e742062616c616e636520666f6040820152651c8818d85b1b60d21b606082015260800190565b6020808252601d908201527f416464726573733a2063616c6c20746f206e6f6e2d636f6e7472616374000000604082015260600190565b6020808252602a908201527f5361666545524332303a204552433230206f7065726174696f6e20646964206e6040820152691bdd081cdd58d8d9595960b21b606082015260800190565b60208082526036908201527f5361666545524332303a20617070726f76652066726f6d206e6f6e2d7a65726f60408201527520746f206e6f6e2d7a65726f20616c6c6f77616e636560501b606082015260800190565b600060a082018783526020878185015260a0604085015281875180845260c0860191508289019350845b818110156114f45784516001600160a01b0316835293830193918301916001016114cf565b50506001600160a01b03969096166060850152505050608001529392505050565b9283526020830191909152604082015260600190565b60405181810167ffffffffffffffff8111828210171561154a57600080fd5b604052919050565b600067ffffffffffffffff821115611568578081fd5b5060209081020190565b60005b8381101561158d578181015183820152602001611575565b83811115610d135750506000910152565b6001600160a01b03811681146115b357600080fd5b5056fe80dd19fda5e57740e733ce4dcba7fed9a5ce81b041887180795d736406e1ba27000000000000000000000000873789aaf553fd0b4252d0d2b72c6331c47aff2ea2646970667358221220607b2d8ea7eba856651713e555ac9726bf7cc4a1a95640159b66c479fb7b317364736f6c63430006060033",
        "linkReferences": {}
    },
    "methodIdentifiers": {
        "routers02(address)": "1f23a8a8",
        "swapLP((address,address,uint256,uint256,uint256,address,uint256),(address,address,uint256,uint256,uint256,uint256,address,uint256))": "d43af74a"
    },
    "id": 27
}