{
    "abi": [
        {
            "type": "constructor",
            "inputs": [],
            "stateMutability": "nonpayable"
        },
        {
            "type": "function",
            "name": "addLPFromToken",
            "inputs": [
                {
                    "name": "tokenIn",
                    "type": "address",
                    "internalType": "address"
                },
                {
                    "name": "amountIn",
                    "type": "uint256",
                    "internalType": "uint256"
                },
                {
                    "name": "addParams",
                    "type": "tuple",
                    "internalType": "struct LPAggreator.AddLPParams",
                    "components": [
                        {
                            "name": "tokenA",
                            "type": "address",
                            "internalType": "address"
                        },
                        {
                            "name": "tokenB",
                            "type": "address",
                            "internalType": "address"
                        },
                        {
                            "name": "amountADesired",
                            "type": "uint256",
                            "internalType": "uint256"
                        },
                        {
                            "name": "amountBDesired",
                            "type": "uint256",
                            "internalType": "uint256"
                        },
                        {
                            "name": "amountAMin",
                            "type": "uint256",
                            "internalType": "uint256"
                        },
                        {
                            "name": "amountBMin",
                            "type": "uint256",
                            "internalType": "uint256"
                        },
                        {
                            "name": "to",
                            "type": "address",
                            "internalType": "address"
                        },
                        {
                            "name": "deadline",
                            "type": "uint256",
                            "internalType": "uint256"
                        }
                    ]
                }
            ],
            "outputs": [
                {
                    "name": "amountA",
                    "type": "uint256",
                    "internalType": "uint256"
                },
                {
                    "name": "amountB",
                    "type": "uint256",
                    "internalType": "uint256"
                },
                {
                    "name": "liquidity",
                    "type": "uint256",
                    "internalType": "uint256"
                }
            ],
            "stateMutability": "nonpayable"
        },
        {
            "type": "function",
            "name": "removeLPToToken",
            "inputs": [
                {
                    "name": "removeParams",
                    "type": "tuple",
                    "internalType": "struct LPAggreator.RemoveLPParams",
                    "components": [
                        {
                            "name": "tokenA",
                            "type": "address",
                            "internalType": "address"
                        },
                        {
                            "name": "tokenB",
                            "type": "address",
                            "internalType": "address"
                        },
                        {
                            "name": "liquidity",
                            "type": "uint256",
                            "internalType": "uint256"
                        },
                        {
                            "name": "amountAMin",
                            "type": "uint256",
                            "internalType": "uint256"
                        },
                        {
                            "name": "amountBMin",
                            "type": "uint256",
                            "internalType": "uint256"
                        },
                        {
                            "name": "to",
                            "type": "address",
                            "internalType": "address"
                        },
                        {
                            "name": "deadline",
                            "type": "uint256",
                            "internalType": "uint256"
                        }
                    ]
                },
                {
                    "name": "tokenOut",
                    "type": "address",
                    "internalType": "address"
                },
                {
                    "name": "amountOutMin",
                    "type": "uint256",
                    "internalType": "uint256"
                }
            ],
            "outputs": [
                {
                    "name": "amountOut",
                    "type": "uint256",
                    "internalType": "uint256"
                }
            ],
            "stateMutability": "nonpayable"
        },
        {
            "type": "function",
            "name": "routers02",
            "inputs": [
                {
                    "name": "",
                    "type": "address",
                    "internalType": "address"
                }
            ],
            "outputs": [
                {
                    "name": "",
                    "type": "address",
                    "internalType": "contract IUniswapV2Router02"
                }
            ],
            "stateMutability": "view"
        },
        {
            "type": "function",
            "name": "swapLP",
            "inputs": [
                {
                    "name": "removeParams",
                    "type": "tuple",
                    "internalType": "struct LPAggreator.RemoveLPParams",
                    "components": [
                        {
                            "name": "tokenA",
                            "type": "address",
                            "internalType": "address"
                        },
                        {
                            "name": "tokenB",
                            "type": "address",
                            "internalType": "address"
                        },
                        {
                            "name": "liquidity",
                            "type": "uint256",
                            "internalType": "uint256"
                        },
                        {
                            "name": "amountAMin",
                            "type": "uint256",
                            "internalType": "uint256"
                        },
                        {
                            "name": "amountBMin",
                            "type": "uint256",
                            "internalType": "uint256"
                        },
                        {
                            "name": "to",
                            "type": "address",
                            "internalType": "address"
                        },
                        {
                            "name": "deadline",
                            "type": "uint256",
                            "internalType": "uint256"
                        }
                    ]
                },
                {
                    "name": "addParams",
                    "type": "tuple",
                    "internalType": "struct LPAggreator.AddLPParams",
                    "components": [
                        {
                            "name": "tokenA",
                            "type": "address",
                            "internalType": "address"
                        },
                        {
                            "name": "tokenB",
                            "type": "address",
                            "internalType": "address"
                        },
                        {
                            "name": "amountADesired",
                            "type": "uint256",
                            "internalType": "uint256"
                        },
                        {
                            "name": "amountBDesired",
                            "type": "uint256",
                            "internalType": "uint256"
                        },
                        {
                            "name": "amountAMin",
                            "type": "uint256",
                            "internalType": "uint256"
                        },
                        {
                            "name": "amountBMin",
                            "type": "uint256",
                            "internalType": "uint256"
                        },
                        {
                            "name": "to",
                            "type": "address",
                            "internalType": "address"
                        },
                        {
                            "name": "deadline",
                            "type": "uint256",
                            "internalType": "uint256"
                        }
                    ]
                }
            ],
            "outputs": [
                {
                    "name": "amountA",
                    "type": "uint256",
                    "internalType": "uint256"
                },
                {
                    "name": "amountB",
                    "type": "uint256",
                    "internalType": "uint256"
                },
                {
                    "name": "liquidity",
                    "type": "uint256",
                    "internalType": "uint256"
                }
            ],
            "stateMutability": "nonpayable"
        }
    ],
    "bytecode": {
        "object": "0x608060405234801561001057600080fd5b5073873789aaf553fd0b4252d0d2b72c6331c47aff2e60008181526020527f80dd19fda5e57740e733ce4dcba7fed9a5ce81b041887180795d736406e1ba2780546001600160a01b0319169091179055611c808061006f6000396000f3fe608060405234801561001057600080fd5b506004361061004c5760003560e01c80631f23a8a8146100515780633c04201b1461007a578063d43af74a1461009a578063dce1be30146100bc575b600080fd5b61006461005f36600461161c565b6100cf565b6040516100719190611925565b60405180910390f35b61008d61008836600461174b565b6100ea565b6040516100719190611ad0565b6100ad6100a836600461178c565b61016d565b60405161007193929190611b49565b6100ad6100ca366004611654565b6102e3565b6000602081905290815260409020546001600160a01b031681565b60008060006100f886610459565b915091506000610112838860000151848a60200151610607565b905061011e8187610957565b9350848410156101495760405162461bcd60e51b81526004016101409061196c565b60405180910390fd5b6101636001600160a01b038716338663ffffffff610afe16565b5050509392505050565b600080600080600061017e87610459565b915091506000610198838960000151848b60200151610607565b90506000806101be600284048a60000151600286816101b357fe5b048c60200151610b59565b9150915061022f6040518061010001604052808b600001516001600160a01b031681526020018b602001516001600160a01b031681526020018481526020018381526020018b6080015181526020018b60a001518152602001306001600160a01b0316815260200142815250610ea4565b8b5160208d015160405163e6a4390560e01b8152949c50929a509098506000927336b83e0d41d1dd9c73a006f0c1cbc1f096e69e349263e6a439059261027a92909190600401611845565b60206040518083038186803b15801561029257600080fd5b505afa1580156102a6573d6000803e3d6000fd5b505050506040513d601f19601f820116820180604052508101906102ca9190611638565b90506102d681886110aa565b5050505050509250925092565b600080806103026001600160a01b03871633308863ffffffff6110c816565b600061030e86886110ef565b90506000806103346002840488600001516002868161032957fe5b048a60200151610b59565b915091506103a560405180610100016040528089600001516001600160a01b0316815260200189602001516001600160a01b03168152602001848152602001838152602001896080015181526020018960a001518152602001306001600160a01b0316815260200142815250610ea4565b895160208b015160405163e6a4390560e01b8152949a509298509096506000927336b83e0d41d1dd9c73a006f0c1cbc1f096e69e349263e6a43905926103f092909190600401611845565b60206040518083038186803b15801561040857600080fd5b505afa15801561041c573d6000803e3d6000fd5b505050506040513d601f19601f820116820180604052508101906104409190611638565b905061044c81866110aa565b5050505093509350939050565b8051602082015160405163e6a4390560e01b8152600092839283927336b83e0d41d1dd9c73a006f0c1cbc1f096e69e349263e6a439059261049c92600401611845565b60206040518083038186803b1580156104b457600080fd5b505afa1580156104c8573d6000803e3d6000fd5b505050506040513d601f19601f820116820180604052508101906104ec9190611638565b905061051233308660400151846001600160a01b03166110c8909392919063ffffffff16565b6040840151610541906001600160a01b03831690600080516020611c0b8339815191529063ffffffff61129916565b600080516020611c0b83398151915260009081526020818152600080516020611beb833981519152548651918701516040808901519051635d5155ef60e11b81526001600160a01b039093169463baa2abde946105ab949093929190819030904290600401611883565b6040805180830381600087803b1580156105c457600080fd5b505af11580156105d8573d6000803e3d6000fd5b505050506040513d601f19601f820116820180604052508101906105fc91906117d9565b909590945092505050565b60006001600160a01b038416600080516020611c2b833981519152141561062f5750836107ac565b84156107ac5761065d6001600160a01b038516600080516020611c0b8339815191528763ffffffff61129916565b6040805160028082526060808301845292602083019080368337019050509050848160008151811061068b57fe5b60200260200101906001600160a01b031690816001600160a01b031681525050600080516020611c2b833981519152816001815181106106c757fe5b6001600160a01b03928316602091820292909201810191909152600080516020611c0b833981519152600090815290819052600080516020611beb833981519152546040516338ed173960e01b815260609391909116916338ed173991610738918b91879030904290600401611ad9565b600060405180830381600087803b15801561075257600080fd5b505af1158015610766573d6000803e3d6000fd5b505050506040513d6000823e601f3d908101601f1916820160405261078e9190810190611693565b90508060018151811061079d57fe5b60200260200101518301925050505b6001600160a01b038216600080516020611c2b83398151915214156107d257820161094f565b821561094f576108006001600160a01b038316600080516020611c0b8339815191528563ffffffff61129916565b6040805160028082526060808301845292602083019080368337019050509050828160008151811061082e57fe5b60200260200101906001600160a01b031690816001600160a01b031681525050600080516020611c2b8339815191528160018151811061086a57fe5b6001600160a01b03928316602091820292909201810191909152600080516020611c0b833981519152600090815290819052600080516020611beb833981519152546040516338ed173960e01b815260609391909116916338ed1739916108db918991879030904290600401611ad9565b600060405180830381600087803b1580156108f557600080fd5b505af1158015610909573d6000803e3d6000fd5b505050506040513d6000823e601f3d908101601f191682016040526109319190810190611693565b90508060018151811061094057fe5b60200260200101518301925050505b949350505050565b60006001600160a01b038216600080516020611c2b83398151915214610af5576109a4600080516020611c2b833981519152600080516020611c0b8339815191528563ffffffff61129916565b6040805160028082526060808301845292602083019080368337019050509050600080516020611c2b833981519152816000815181106109e057fe5b60200260200101906001600160a01b031690816001600160a01b0316815250508281600181518110610a0e57fe5b6001600160a01b03928316602091820292909201810191909152600080516020611c0b833981519152600090815290819052600080516020611beb833981519152546040516338ed173960e01b815260609391909116916338ed173991610a7f918991879030904290600401611ad9565b600060405180830381600087803b158015610a9957600080fd5b505af1158015610aad573d6000803e3d6000fd5b505050506040513d6000823e601f3d908101601f19168201604052610ad59190810190611693565b905080600181518110610ae457fe5b602002602001015192505050610af8565b50815b92915050565b610b548363a9059cbb60e01b8484604051602401610b1d92919061190c565b60408051601f198184030181529190526020810180516001600160e01b03166001600160e01b03199093169290921790915261135c565b505050565b6000806001600160a01b038516600080516020611c2b83398151915214610cf857610ba7600080516020611c2b833981519152600080516020611c0b8339815191528863ffffffff61129916565b6040805160028082526060808301845292602083019080368337019050509050600080516020611c2b83398151915281600081518110610be357fe5b60200260200101906001600160a01b031690816001600160a01b0316815250508581600181518110610c1157fe5b6001600160a01b03928316602091820292909201810191909152600080516020611c0b833981519152600090815290819052600080516020611beb833981519152546040516338ed173960e01b815260609391909116916338ed173991610c82918c91879030904290600401611ad9565b600060405180830381600087803b158015610c9c57600080fd5b505af1158015610cb0573d6000803e3d6000fd5b505050506040513d6000823e601f3d908101601f19168201604052610cd89190810190611693565b905080600181518110610ce757fe5b602002602001015193505050610cfc565b8591505b6001600160a01b038316600080516020611c2b83398151915214610e9857610d47600080516020611c2b833981519152600080516020611c0b8339815191528663ffffffff61129916565b6040805160028082526060808301845292602083019080368337019050509050600080516020611c2b83398151915281600081518110610d8357fe5b60200260200101906001600160a01b031690816001600160a01b0316815250508381600181518110610db157fe5b6001600160a01b03928316602091820292909201810191909152600080516020611c0b833981519152600090815290819052600080516020611beb833981519152546040516338ed173960e01b815260609391909116916338ed173991610e22918a91879030904290600401611ad9565b600060405180830381600087803b158015610e3c57600080fd5b505af1158015610e50573d6000803e3d6000fd5b505050506040513d6000823e601f3d908101601f19168201604052610e789190810190611693565b905080600181518110610e8757fe5b602002602001015192505050610e9b565b50825b94509492505050565b6000806000610edd600080516020611c0b833981519152856040015186600001516001600160a01b03166112999092919063ffffffff16565b610f11600080516020611c0b833981519152856060015186602001516001600160a01b03166112999092919063ffffffff16565b600080516020611c0b83398151915260009081526020908152600080516020611beb83398151915254855191860151604080880151606089015160808a015160a08b015160c08c0151945162e8e33760e81b81526001600160a01b039097169763e8e3370097610f8e9791969195949392919042906004016118c3565b606060405180830381600087803b158015610fa857600080fd5b505af1158015610fbc573d6000803e3d6000fd5b505050506040513d601f19601f82011682018060405250810190610fe091906117fc565b6040870151929550909350915083101561101f57835161101f906001600160a01b0316600080516020611c0b833981519152600063ffffffff61129916565b8360600151821015611059576020840151611059906001600160a01b0316600080516020611c0b833981519152600063ffffffff61129916565b600061107b848660400151038660000151858860600151038860200151610607565b905080156110a2576110a2600080516020611c2b833981519152338363ffffffff610afe16565b509193909250565b6110c46001600160a01b038316338363ffffffff610afe16565b5050565b6110e9846323b872dd60e01b858585604051602401610b1d9392919061185f565b50505050565b60006001600160a01b038216600080516020611c2b8339815191521415611117575081610af8565b8215610af8576111456001600160a01b038316600080516020611c0b8339815191528563ffffffff61129916565b6040805160028082526060808301845292602083019080368337019050509050828160008151811061117357fe5b60200260200101906001600160a01b031690816001600160a01b031681525050600080516020611c2b833981519152816001815181106111af57fe5b6001600160a01b03928316602091820292909201810191909152600080516020611c0b833981519152600090815290819052600080516020611beb833981519152546040516338ed173960e01b815260609391909116916338ed173991611220918991879030904290600401611ad9565b600060405180830381600087803b15801561123a57600080fd5b505af115801561124e573d6000803e3d6000fd5b505050506040513d6000823e601f3d908101601f191682016040526112769190810190611693565b90508060018151811061128557fe5b602002602001015183019250505092915050565b8015806113215750604051636eb1769f60e11b81526001600160a01b0384169063dd62ed3e906112cf9030908690600401611845565b60206040518083038186803b1580156112e757600080fd5b505afa1580156112fb573d6000803e3d6000fd5b505050506040513d601f19601f8201168201806040525081019061131f91906117c1565b155b61133d5760405162461bcd60e51b815260040161014090611a7a565b610b548363095ea7b360e01b8484604051602401610b1d92919061190c565b60606113b1826040518060400160405280602081526020017f5361666545524332303a206c6f772d6c6576656c2063616c6c206661696c6564815250856001600160a01b03166113eb9092919063ffffffff16565b805190915015610b5457808060200190518101906113cf919061172b565b610b545760405162461bcd60e51b815260040161014090611a30565b60606113fa8484600085611404565b90505b9392505050565b6060824710156114265760405162461bcd60e51b8152600401610140906119b3565b61142f856114c5565b61144b5760405162461bcd60e51b8152600401610140906119f9565b60006060866001600160a01b031685876040516114689190611829565b60006040518083038185875af1925050503d80600081146114a5576040519150601f19603f3d011682016040523d82523d6000602084013e6114aa565b606091505b50915091506114ba8282866114cb565b979650505050505050565b3b151590565b606083156114da5750816113fd565b8251156114ea5782518084602001fd5b8160405162461bcd60e51b81526004016101409190611939565b8035610af881611bd2565b6000610100808385031215611522578182fd5b61152b81611b5f565b915050813561153981611bd2565b8152602082013561154981611bd2565b8060208301525060408201356040820152606082013560608201526080820135608082015260a082013560a08201526115858360c08401611504565b60c082015260e082013560e082015292915050565b600060e082840312156115ab578081fd5b6115b560e0611b5f565b905081356115c281611bd2565b815260208201356115d281611bd2565b8060208301525060408201356040820152606082013560608201526080820135608082015260a082013561160581611bd2565b8060a08301525060c082013560c082015292915050565b60006020828403121561162d578081fd5b81356113fd81611bd2565b600060208284031215611649578081fd5b81516113fd81611bd2565b60008060006101408486031215611669578182fd5b833561167481611bd2565b92506020840135915061168a856040860161150f565b90509250925092565b600060208083850312156116a5578182fd5b825167ffffffffffffffff8111156116bb578283fd5b80840185601f8201126116cc578384fd5b805191506116e16116dc83611b86565b611b5f565b82815283810190828501858502840186018910156116fd578687fd5b8693505b8484101561171f578051835260019390930192918501918501611701565b50979650505050505050565b60006020828403121561173c578081fd5b815180151581146113fd578182fd5b60008060006101208486031215611760578283fd5b61176a858561159a565b925060e084013561177a81611bd2565b92959294505050610100919091013590565b6000806101e0838503121561179f578182fd5b6117a9848461159a565b91506117b88460e0850161150f565b90509250929050565b6000602082840312156117d2578081fd5b5051919050565b600080604083850312156117eb578182fd5b505080516020909101519092909150565b600080600060608486031215611810578283fd5b8351925060208401519150604084015190509250925092565b6000825161183b818460208701611ba6565b9190910192915050565b6001600160a01b0392831681529116602082015260400190565b6001600160a01b039384168152919092166020820152604081019190915260600190565b6001600160a01b039788168152958716602087015260408601949094526060850192909252608084015290921660a082015260c081019190915260e00190565b6001600160a01b039889168152968816602088015260408701959095526060860193909352608085019190915260a084015290921660c082015260e08101919091526101000190565b6001600160a01b03929092168252602082015260400190565b6001600160a01b0391909116815260200190565b6000602082528251806020840152611958816040850160208701611ba6565b601f01601f19169190910160400192915050565b60208082526027908201527f4c50416767726561746f723a20494e53554646494349454e545f4f555450555460408201526617d05353d5539560ca1b606082015260800190565b60208082526026908201527f416464726573733a20696e73756666696369656e742062616c616e636520666f6040820152651c8818d85b1b60d21b606082015260800190565b6020808252601d908201527f416464726573733a2063616c6c20746f206e6f6e2d636f6e7472616374000000604082015260600190565b6020808252602a908201527f5361666545524332303a204552433230206f7065726174696f6e20646964206e6040820152691bdd081cdd58d8d9595960b21b606082015260800190565b60208082526036908201527f5361666545524332303a20617070726f76652066726f6d206e6f6e2d7a65726f60408201527520746f206e6f6e2d7a65726f20616c6c6f77616e636560501b606082015260800190565b90815260200190565b600060a082018783526020878185015260a0604085015281875180845260c0860191508289019350845b81811015611b285784516001600160a01b031683529383019391830191600101611b03565b50506001600160a01b03969096166060850152505050608001529392505050565b9283526020830191909152604082015260600190565b60405181810167ffffffffffffffff81118282101715611b7e57600080fd5b604052919050565b600067ffffffffffffffff821115611b9c578081fd5b5060209081020190565b60005b83811015611bc1578181015183820152602001611ba9565b838111156110e95750506000910152565b6001600160a01b0381168114611be757600080fd5b5056fe80dd19fda5e57740e733ce4dcba7fed9a5ce81b041887180795d736406e1ba27000000000000000000000000873789aaf553fd0b4252d0d2b72c6331c47aff2e0000000000000000000000002ed3dddae5b2f321af0806181fbfa6d049be47d8a2646970667358221220f1eb83898d00de279bbecc82fdfcfcf7be1531fc77b8997468a293cb255eb4d864736f6c63430006060033",
        "linkReferences": {}
    },
    "methodIdentifiers": {
        "addLPFromToken(address,uint256,(address,address,uint256,uint256,uint256,uint256,address,uint256))": "dce1be30",
        "removeLPToToken((address,address,uint256,uint256,uint256,address,uint256),address,uint256)": "3c04201b",
        "routers02(address)": "1f23a8a8",
        "swapLP((address,address,uint256,uint256,uint256,address,uint256),(address,address,uint256,uint256,uint256,uint256,address,uint256))": "d43af74a"
    },
    "id": 27
}